{
  "_format": "hh-sol-artifact-1",
  "contractName": "DEX",
  "sourceName": "contracts/DEX.sol",
  "abi": [
    {
      "inputs": [
        {
          "internalType": "address",
          "name": "token_addr",
          "type": "address"
        }
      ],
      "stateMutability": "nonpayable",
      "type": "constructor"
    },
    {
      "inputs": [],
      "name": "ethToToken",
      "outputs": [
        {
          "internalType": "uint256",
          "name": "",
          "type": "uint256"
        }
      ],
      "stateMutability": "payable",
      "type": "function"
    },
    {
      "inputs": [
        {
          "internalType": "uint256",
          "name": "tokens",
          "type": "uint256"
        }
      ],
      "name": "init",
      "outputs": [
        {
          "internalType": "uint256",
          "name": "",
          "type": "uint256"
        }
      ],
      "stateMutability": "payable",
      "type": "function"
    },
    {
      "inputs": [
        {
          "internalType": "address",
          "name": "",
          "type": "address"
        }
      ],
      "name": "liquidity",
      "outputs": [
        {
          "internalType": "uint256",
          "name": "",
          "type": "uint256"
        }
      ],
      "stateMutability": "view",
      "type": "function"
    },
    {
      "inputs": [
        {
          "internalType": "uint256",
          "name": "input_amount",
          "type": "uint256"
        },
        {
          "internalType": "uint256",
          "name": "input_reserve",
          "type": "uint256"
        },
        {
          "internalType": "uint256",
          "name": "output_reserve",
          "type": "uint256"
        }
      ],
      "name": "price",
      "outputs": [
        {
          "internalType": "uint256",
          "name": "",
          "type": "uint256"
        }
      ],
      "stateMutability": "view",
      "type": "function"
    },
    {
      "inputs": [
        {
          "internalType": "uint256",
          "name": "tokens",
          "type": "uint256"
        }
      ],
      "name": "tokenToEth",
      "outputs": [
        {
          "internalType": "uint256",
          "name": "",
          "type": "uint256"
        }
      ],
      "stateMutability": "nonpayable",
      "type": "function"
    },
    {
      "inputs": [],
      "name": "totalLiquidity",
      "outputs": [
        {
          "internalType": "uint256",
          "name": "",
          "type": "uint256"
        }
      ],
      "stateMutability": "view",
      "type": "function"
    }
  ],
  "bytecode": "0x608060405234801561001057600080fd5b5060405161076638038061076683398101604081905261002f91610054565b600080546001600160a01b0319166001600160a01b0392909216919091179055610082565b600060208284031215610065578081fd5b81516001600160a01b038116811461007b578182fd5b9392505050565b6106d5806100916000396000f3fe6080604052600436106100555760003560e01c806315770f921461005a5780632071a9f41461008257806370b2a30f146100a2578063789770f4146100c2578063b7b0422d146100ca578063b8c876b1146100dd575b600080fd5b34801561006657600080fd5b5061007060015481565b60405190815260200160405180910390f35b34801561008e57600080fd5b5061007061009d3660046105f0565b61010a565b3480156100ae57600080fd5b506100706100bd3660046105c0565b610158565b61007061031e565b6100706100d83660046105c0565b610446565b3480156100e957600080fd5b506100706100f8366004610579565b60026020526000908152604090205481565b600080610119856103e561054e565b90506000610127828561054e565b905060006101418361013b886103e861054e565b90610561565b905061014d8183610633565b979650505050505050565b600080546040516370a0823160e01b815230600482015282916001600160a01b0316906370a082319060240160206040518083038186803b15801561019c57600080fd5b505afa1580156101b0573d6000803e3d6000fd5b505050506040513d601f19601f820116820180604052508101906101d491906105d8565b905060006101e384834761010a565b604051909150600090339083908381818185875af1925050503d8060008114610228576040519150601f19603f3d011682016040523d82523d6000602084013e61022d565b606091505b50509050806102835760405162461bcd60e51b815260206004820152601860248201527f4661696c656420746f2073656e642075736572206574682e000000000000000060448201526064015b60405180910390fd5b6000546040516323b872dd60e01b8152336004820152306024820152604481018790526001600160a01b03909116906323b872dd90606401602060405180830381600087803b1580156102d557600080fd5b505af11580156102e9573d6000803e3d6000fd5b505050506040513d601f19601f8201168201806040525081019061030d91906105a0565b61031657600080fd5b509392505050565b600080546040516370a0823160e01b815230600482015282916001600160a01b0316906370a082319060240160206040518083038186803b15801561036257600080fd5b505afa158015610376573d6000803e3d6000fd5b505050506040513d601f19601f8201168201806040525081019061039a91906105d8565b905060006103b2346103ac478261056d565b8461010a565b60005460405163a9059cbb60e01b8152336004820152602481018390529192506001600160a01b03169063a9059cbb90604401602060405180830381600087803b1580156103ff57600080fd5b505af1158015610413573d6000803e3d6000fd5b505050506040513d601f19601f8201168201806040525081019061043791906105a0565b61044057600080fd5b92915050565b600060015460001461049a5760405162461bcd60e51b815260206004820181905260248201527f4445583a696e6974202d20616c726561647920686173206c6971756964697479604482015260640161027a565b47600181905533600081815260026020526040808220939093555491516323b872dd60e01b81526004810191909152306024820152604481018490526001600160a01b03909116906323b872dd90606401602060405180830381600087803b15801561050557600080fd5b505af1158015610519573d6000803e3d6000fd5b505050506040513d601f19601f8201168201806040525081019061053d91906105a0565b61054657600080fd5b505060015490565b600061055a8284610653565b9392505050565b600061055a828461061b565b600061055a8284610672565b60006020828403121561058a578081fd5b81356001600160a01b038116811461055a578182fd5b6000602082840312156105b1578081fd5b8151801515811461055a578182fd5b6000602082840312156105d1578081fd5b5035919050565b6000602082840312156105e9578081fd5b5051919050565b600080600060608486031215610604578182fd5b505081359360208301359350604090920135919050565b6000821982111561062e5761062e610689565b500190565b60008261064e57634e487b7160e01b81526012600452602481fd5b500490565b600081600019048311821515161561066d5761066d610689565b500290565b60008282101561068457610684610689565b500390565b634e487b7160e01b600052601160045260246000fdfea2646970667358221220bf3585e3b1d5dfb54c1abaecf63512fc8c262e9972ebcad760d6d191b3b903b264736f6c63430008040033",
  "linkReferences": {},
  "deployedLinkReferences": {}
}